{
  "contractName": "splitEth",
  "abi": [
    {
      "inputs": [],
      "name": "message",
      "outputs": [
        {
          "internalType": "string",
          "name": "",
          "type": "string"
        }
      ],
      "stateMutability": "view",
      "type": "function",
      "constant": true
    },
    {
      "inputs": [],
      "name": "deposit",
      "outputs": [],
      "stateMutability": "payable",
      "type": "function",
      "payable": true
    },
    {
      "inputs": [
        {
          "internalType": "address payable",
          "name": "_addr1",
          "type": "address"
        },
        {
          "internalType": "address payable",
          "name": "_addr2",
          "type": "address"
        }
      ],
      "name": "transferEth",
      "outputs": [],
      "stateMutability": "payable",
      "type": "function",
      "payable": true
    },
    {
      "inputs": [],
      "name": "withdraw",
      "outputs": [],
      "stateMutability": "payable",
      "type": "function",
      "payable": true
    }
  ],
  "bytecode": "0x608060405234801561001057600080fd5b5061055c806100206000396000f3fe60806040526004361061003f5760003560e01c80633ccfd60b14610044578063d0e30db01461004e578063d21fee3e14610058578063e21f37ce14610074575b600080fd5b61004c61009f565b005b6100566100e8565b005b610072600480360381019061006d9190610312565b6100ff565b005b34801561008057600080fd5b5061008961026f565b604051610096919061038b565b60405180910390f35b3373ffffffffffffffffffffffffffffffffffffffff166108fc479081150290604051600060405180830381858888f193505050501580156100e5573d6000803e3d6000fd5b50565b670de0b6b3a76400003410156100fd57600080fd5b565b81600160006101000a81548173ffffffffffffffffffffffffffffffffffffffff021916908373ffffffffffffffffffffffffffffffffffffffff16021790555080600260006101000a81548173ffffffffffffffffffffffffffffffffffffffff021916908373ffffffffffffffffffffffffffffffffffffffff160217905550600160009054906101000a900473ffffffffffffffffffffffffffffffffffffffff1673ffffffffffffffffffffffffffffffffffffffff166108fc6002346101ca91906103c9565b9081150290604051600060405180830381858888f193505050501580156101f5573d6000803e3d6000fd5b50600260009054906101000a900473ffffffffffffffffffffffffffffffffffffffff1673ffffffffffffffffffffffffffffffffffffffff166108fc60023461023f91906103c9565b9081150290604051600060405180830381858888f1935050505015801561026a573d6000803e3d6000fd5b505050565b6000805461027c90610469565b80601f01602080910402602001604051908101604052809291908181526020018280546102a890610469565b80156102f55780601f106102ca576101008083540402835291602001916102f5565b820191906000526020600020905b8154815290600101906020018083116102d857829003601f168201915b505050505081565b60008135905061030c8161050f565b92915050565b60008060408385031215610329576103286104f9565b5b6000610337858286016102fd565b9250506020610348858286016102fd565b9150509250929050565b600061035d826103ad565b61036781856103b8565b9350610377818560208601610436565b610380816104fe565b840191505092915050565b600060208201905081810360008301526103a58184610352565b905092915050565b600081519050919050565b600082825260208201905092915050565b60006103d48261042c565b91506103df8361042c565b9250826103ef576103ee61049b565b5b828204905092915050565b60006104058261040c565b9050919050565b600073ffffffffffffffffffffffffffffffffffffffff82169050919050565b6000819050919050565b60005b83811015610454578082015181840152602081019050610439565b83811115610463576000848401525b50505050565b6000600282049050600182168061048157607f821691505b60208210811415610495576104946104ca565b5b50919050565b7f4e487b7100000000000000000000000000000000000000000000000000000000600052601260045260246000fd5b7f4e487b7100000000000000000000000000000000000000000000000000000000600052602260045260246000fd5b600080fd5b6000601f19601f8301169050919050565b610518816103fa565b811461052357600080fd5b5056fea2646970667358221220db1543d26cbc335997d447516ecea4a4b73b9d368e732f03cfbfd4f0c8dcaf1664736f6c63430008060033",
  "immutableReferences": {},
  "source": "// SPDX-License-Identifier: MIT\r\npragma solidity ^0.8.6;\r\n\r\ncontract splitEth {\r\n\r\n    string public message;\r\n    address payable addr1;\r\n    address payable addr2;\r\n\r\n\r\n    function deposit() public payable {\r\n\r\n        require(msg.value >= 1 ether);\r\n    } \r\n\r\n    function transferEth(address payable _addr1, address payable _addr2) public payable {\r\n\r\n        addr1 = _addr1;\r\n        addr2 = _addr2;\r\n        addr1.transfer(msg.value/2) ;     \r\n        addr2.transfer(msg.value/2) ;     \r\n\r\n\r\n    \r\n    }\r\n\r\n    function withdraw() public payable{\r\n\r\n        payable(msg.sender).transfer(address(this).balance);    \r\n\r\n    }\r\n\r\n\r\n}\r\n",
  "sourcePath": "D:/Drive Stuff/Projects/splitEther/contracts/splitEth.sol",
  "compiler": {
    "name": "solc",
    "version": "0.8.6+commit.11564f7e.Emscripten.clang"
  },
  "schemaVersion": "3.4.1",
  "updatedAt": "2021-07-22T11:55:36.420Z",
  "networkType": "ethereum",
  "devdoc": {
    "kind": "dev",
    "methods": {},
    "version": 1
  },
  "userdoc": {
    "kind": "user",
    "methods": {},
    "version": 1
  }
}